{
  "_format": "hh-sol-artifact-1",
  "contractName": "Assessment",
  "sourceName": "contracts/Assessment.sol",
  "abi": [
    {
      "inputs": [
        {
          "internalType": "uint256",
          "name": "initBalance",
          "type": "uint256"
        }
      ],
      "stateMutability": "payable",
      "type": "constructor"
    },
    {
      "inputs": [],
      "name": "balance",
      "outputs": [
        {
          "internalType": "uint256",
          "name": "",
          "type": "uint256"
        }
      ],
      "stateMutability": "view",
      "type": "function"
    },
    {
      "inputs": [
        {
          "internalType": "uint256",
          "name": "n",
          "type": "uint256"
        }
      ],
      "name": "composite_cube",
      "outputs": [],
      "stateMutability": "nonpayable",
      "type": "function"
    },
    {
      "inputs": [],
      "name": "getBalance",
      "outputs": [
        {
          "internalType": "uint256",
          "name": "",
          "type": "uint256"
        }
      ],
      "stateMutability": "view",
      "type": "function"
    },
    {
      "inputs": [
        {
          "internalType": "uint256",
          "name": "n",
          "type": "uint256"
        }
      ],
      "name": "prime_square",
      "outputs": [],
      "stateMutability": "payable",
      "type": "function"
    }
  ],
  "bytecode": "0x608060405260405161042f38038061042f8339818101604052810190610025919061006d565b806000819055505061009a565b600080fd5b6000819050919050565b61004a81610037565b811461005557600080fd5b50565b60008151905061006781610041565b92915050565b60006020828403121561008357610082610032565b5b600061009184828501610058565b91505092915050565b610386806100a96000396000f3fe60806040526004361061003f5760003560e01c806304ad2dcc1461004457806312065fe01461006d578063326b274614610098578063b69ef8a8146100b4575b600080fd5b34801561005057600080fd5b5061006b600480360381019061006691906101e0565b6100df565b005b34801561007957600080fd5b50610082610140565b60405161008f919061021c565b60405180910390f35b6100b260048036038101906100ad91906101e0565b610149565b005b3480156100c057600080fd5b506100c961019f565b6040516100d6919061021c565b60405180910390f35b6000600290505b8181826100f39190610266565b1161013c576000818361010691906102d7565b03610129578182836101189190610266565b6101229190610266565b6000819055505b808061013490610308565b9150506100e6565b5050565b60008054905090565b6000600290505b81818261015d9190610266565b1161019b576000818361017091906102d7565b146101885781826101819190610266565b6000819055505b808061019390610308565b915050610150565b5050565b60005481565b600080fd5b6000819050919050565b6101bd816101aa565b81146101c857600080fd5b50565b6000813590506101da816101b4565b92915050565b6000602082840312156101f6576101f56101a5565b5b6000610204848285016101cb565b91505092915050565b610216816101aa565b82525050565b6000602082019050610231600083018461020d565b92915050565b7f4e487b7100000000000000000000000000000000000000000000000000000000600052601160045260246000fd5b6000610271826101aa565b915061027c836101aa565b925082820261028a816101aa565b915082820484148315176102a1576102a0610237565b5b5092915050565b7f4e487b7100000000000000000000000000000000000000000000000000000000600052601260045260246000fd5b60006102e2826101aa565b91506102ed836101aa565b9250826102fd576102fc6102a8565b5b828206905092915050565b6000610313826101aa565b91507fffffffffffffffffffffffffffffffffffffffffffffffffffffffffffffffff820361034557610344610237565b5b60018201905091905056fea2646970667358221220e74f80ca59ad6425bb9538d321391631249ec9b2999ec0a27b4e0f8de543460564736f6c63430008110033",
  "linkReferences": {},
  "deployedLinkReferences": {}
}