{"contracts/Assessment.sol":{"Assessment":{"abi":[{"inputs":[{"internalType":"uint256","name":"initBalance","type":"uint256"}],"stateMutability":"payable","type":"constructor"},{"inputs":[],"name":"balance","outputs":[{"internalType":"uint256","name":"","type":"uint256"}],"stateMutability":"view","type":"function"},{"inputs":[{"internalType":"uint256","name":"n","type":"uint256"}],"name":"composite_cube","outputs":[],"stateMutability":"nonpayable","type":"function"},{"inputs":[],"name":"getBalance","outputs":[{"internalType":"uint256","name":"","type":"uint256"}],"stateMutability":"view","type":"function"},{"inputs":[{"internalType":"uint256","name":"n","type":"uint256"}],"name":"prime_square","outputs":[],"stateMutability":"payable","type":"function"}],"evm":{"bytecode":{"linkReferences":{},"object":"608060405260405161042f38038061042f8339818101604052810190610025919061006d565b806000819055505061009a565b600080fd5b6000819050919050565b61004a81610037565b811461005557600080fd5b50565b60008151905061006781610041565b92915050565b60006020828403121561008357610082610032565b5b600061009184828501610058565b91505092915050565b610386806100a96000396000f3fe60806040526004361061003f5760003560e01c806304ad2dcc1461004457806312065fe01461006d578063326b274614610098578063b69ef8a8146100b4575b600080fd5b34801561005057600080fd5b5061006b600480360381019061006691906101e0565b6100df565b005b34801561007957600080fd5b50610082610140565b60405161008f919061021c565b60405180910390f35b6100b260048036038101906100ad91906101e0565b610149565b005b3480156100c057600080fd5b506100c961019f565b6040516100d6919061021c565b60405180910390f35b6000600290505b8181826100f39190610266565b1161013c576000818361010691906102d7565b03610129578182836101189190610266565b6101229190610266565b6000819055505b808061013490610308565b9150506100e6565b5050565b60008054905090565b6000600290505b81818261015d9190610266565b1161019b576000818361017091906102d7565b146101885781826101819190610266565b6000819055505b808061019390610308565b915050610150565b5050565b60005481565b600080fd5b6000819050919050565b6101bd816101aa565b81146101c857600080fd5b50565b6000813590506101da816101b4565b92915050565b6000602082840312156101f6576101f56101a5565b5b6000610204848285016101cb565b91505092915050565b610216816101aa565b82525050565b6000602082019050610231600083018461020d565b92915050565b7f4e487b7100000000000000000000000000000000000000000000000000000000600052601160045260246000fd5b6000610271826101aa565b915061027c836101aa565b925082820261028a816101aa565b915082820484148315176102a1576102a0610237565b5b5092915050565b7f4e487b7100000000000000000000000000000000000000000000000000000000600052601260045260246000fd5b60006102e2826101aa565b91506102ed836101aa565b9250826102fd576102fc6102a8565b5b828206905092915050565b6000610313826101aa565b91507fffffffffffffffffffffffffffffffffffffffffffffffffffffffffffffffff820361034557610344610237565b5b60018201905091905056fea2646970667358221220e74f80ca59ad6425bb9538d321391631249ec9b2999ec0a27b4e0f8de543460564736f6c63430008110033","opcodes":"PUSH1 0x80 PUSH1 0x40 MSTORE PUSH1 0x40 MLOAD PUSH2 0x42F CODESIZE SUB DUP1 PUSH2 0x42F DUP4 CODECOPY DUP2 DUP2 ADD PUSH1 0x40 MSTORE DUP2 ADD SWAP1 PUSH2 0x25 SWAP2 SWAP1 PUSH2 0x6D JUMP JUMPDEST DUP1 PUSH1 0x0 DUP2 SWAP1 SSTORE POP POP PUSH2 0x9A JUMP JUMPDEST PUSH1 0x0 DUP1 REVERT JUMPDEST PUSH1 0x0 DUP2 SWAP1 POP SWAP2 SWAP1 POP JUMP JUMPDEST PUSH2 0x4A DUP2 PUSH2 0x37 JUMP JUMPDEST DUP2 EQ PUSH2 0x55 JUMPI PUSH1 0x0 DUP1 REVERT JUMPDEST POP JUMP JUMPDEST PUSH1 0x0 DUP2 MLOAD SWAP1 POP PUSH2 0x67 DUP2 PUSH2 0x41 JUMP JUMPDEST SWAP3 SWAP2 POP POP JUMP JUMPDEST PUSH1 0x0 PUSH1 0x20 DUP3 DUP5 SUB SLT ISZERO PUSH2 0x83 JUMPI PUSH2 0x82 PUSH2 0x32 JUMP JUMPDEST JUMPDEST PUSH1 0x0 PUSH2 0x91 DUP5 DUP3 DUP6 ADD PUSH2 0x58 JUMP JUMPDEST SWAP2 POP POP SWAP3 SWAP2 POP POP JUMP JUMPDEST PUSH2 0x386 DUP1 PUSH2 0xA9 PUSH1 0x0 CODECOPY PUSH1 0x0 RETURN INVALID PUSH1 0x80 PUSH1 0x40 MSTORE PUSH1 0x4 CALLDATASIZE LT PUSH2 0x3F JUMPI PUSH1 0x0 CALLDATALOAD PUSH1 0xE0 SHR DUP1 PUSH4 0x4AD2DCC EQ PUSH2 0x44 JUMPI DUP1 PUSH4 0x12065FE0 EQ PUSH2 0x6D JUMPI DUP1 PUSH4 0x326B2746 EQ PUSH2 0x98 JUMPI DUP1 PUSH4 0xB69EF8A8 EQ PUSH2 0xB4 JUMPI JUMPDEST PUSH1 0x0 DUP1 REVERT JUMPDEST CALLVALUE DUP1 ISZERO PUSH2 0x50 JUMPI PUSH1 0x0 DUP1 REVERT JUMPDEST POP PUSH2 0x6B PUSH1 0x4 DUP1 CALLDATASIZE SUB DUP2 ADD SWAP1 PUSH2 0x66 SWAP2 SWAP1 PUSH2 0x1E0 JUMP JUMPDEST PUSH2 0xDF JUMP JUMPDEST STOP JUMPDEST CALLVALUE DUP1 ISZERO PUSH2 0x79 JUMPI PUSH1 0x0 DUP1 REVERT JUMPDEST POP PUSH2 0x82 PUSH2 0x140 JUMP JUMPDEST PUSH1 0x40 MLOAD PUSH2 0x8F SWAP2 SWAP1 PUSH2 0x21C JUMP JUMPDEST PUSH1 0x40 MLOAD DUP1 SWAP2 SUB SWAP1 RETURN JUMPDEST PUSH2 0xB2 PUSH1 0x4 DUP1 CALLDATASIZE SUB DUP2 ADD SWAP1 PUSH2 0xAD SWAP2 SWAP1 PUSH2 0x1E0 JUMP JUMPDEST PUSH2 0x149 JUMP JUMPDEST STOP JUMPDEST CALLVALUE DUP1 ISZERO PUSH2 0xC0 JUMPI PUSH1 0x0 DUP1 REVERT JUMPDEST POP PUSH2 0xC9 PUSH2 0x19F JUMP JUMPDEST PUSH1 0x40 MLOAD PUSH2 0xD6 SWAP2 SWAP1 PUSH2 0x21C JUMP JUMPDEST PUSH1 0x40 MLOAD DUP1 SWAP2 SUB SWAP1 RETURN JUMPDEST PUSH1 0x0 PUSH1 0x2 SWAP1 POP JUMPDEST DUP2 DUP2 DUP3 PUSH2 0xF3 SWAP2 SWAP1 PUSH2 0x266 JUMP JUMPDEST GT PUSH2 0x13C JUMPI PUSH1 0x0 DUP2 DUP4 PUSH2 0x106 SWAP2 SWAP1 PUSH2 0x2D7 JUMP JUMPDEST SUB PUSH2 0x129 JUMPI DUP2 DUP3 DUP4 PUSH2 0x118 SWAP2 SWAP1 PUSH2 0x266 JUMP JUMPDEST PUSH2 0x122 SWAP2 SWAP1 PUSH2 0x266 JUMP JUMPDEST PUSH1 0x0 DUP2 SWAP1 SSTORE POP JUMPDEST DUP1 DUP1 PUSH2 0x134 SWAP1 PUSH2 0x308 JUMP JUMPDEST SWAP2 POP POP PUSH2 0xE6 JUMP JUMPDEST POP POP JUMP JUMPDEST PUSH1 0x0 DUP1 SLOAD SWAP1 POP SWAP1 JUMP JUMPDEST PUSH1 0x0 PUSH1 0x2 SWAP1 POP JUMPDEST DUP2 DUP2 DUP3 PUSH2 0x15D SWAP2 SWAP1 PUSH2 0x266 JUMP JUMPDEST GT PUSH2 0x19B JUMPI PUSH1 0x0 DUP2 DUP4 PUSH2 0x170 SWAP2 SWAP1 PUSH2 0x2D7 JUMP JUMPDEST EQ PUSH2 0x188 JUMPI DUP2 DUP3 PUSH2 0x181 SWAP2 SWAP1 PUSH2 0x266 JUMP JUMPDEST PUSH1 0x0 DUP2 SWAP1 SSTORE POP JUMPDEST DUP1 DUP1 PUSH2 0x193 SWAP1 PUSH2 0x308 JUMP JUMPDEST SWAP2 POP POP PUSH2 0x150 JUMP JUMPDEST POP POP JUMP JUMPDEST PUSH1 0x0 SLOAD DUP2 JUMP JUMPDEST PUSH1 0x0 DUP1 REVERT JUMPDEST PUSH1 0x0 DUP2 SWAP1 POP SWAP2 SWAP1 POP JUMP JUMPDEST PUSH2 0x1BD DUP2 PUSH2 0x1AA JUMP JUMPDEST DUP2 EQ PUSH2 0x1C8 JUMPI PUSH1 0x0 DUP1 REVERT JUMPDEST POP JUMP JUMPDEST PUSH1 0x0 DUP2 CALLDATALOAD SWAP1 POP PUSH2 0x1DA DUP2 PUSH2 0x1B4 JUMP JUMPDEST SWAP3 SWAP2 POP POP JUMP JUMPDEST PUSH1 0x0 PUSH1 0x20 DUP3 DUP5 SUB SLT ISZERO PUSH2 0x1F6 JUMPI PUSH2 0x1F5 PUSH2 0x1A5 JUMP JUMPDEST JUMPDEST PUSH1 0x0 PUSH2 0x204 DUP5 DUP3 DUP6 ADD PUSH2 0x1CB JUMP JUMPDEST SWAP2 POP POP SWAP3 SWAP2 POP POP JUMP JUMPDEST PUSH2 0x216 DUP2 PUSH2 0x1AA JUMP JUMPDEST DUP3 MSTORE POP POP JUMP JUMPDEST PUSH1 0x0 PUSH1 0x20 DUP3 ADD SWAP1 POP PUSH2 0x231 PUSH1 0x0 DUP4 ADD DUP5 PUSH2 0x20D JUMP JUMPDEST SWAP3 SWAP2 POP POP JUMP JUMPDEST PUSH32 0x4E487B7100000000000000000000000000000000000000000000000000000000 PUSH1 0x0 MSTORE PUSH1 0x11 PUSH1 0x4 MSTORE PUSH1 0x24 PUSH1 0x0 REVERT JUMPDEST PUSH1 0x0 PUSH2 0x271 DUP3 PUSH2 0x1AA JUMP JUMPDEST SWAP2 POP PUSH2 0x27C DUP4 PUSH2 0x1AA JUMP JUMPDEST SWAP3 POP DUP3 DUP3 MUL PUSH2 0x28A DUP2 PUSH2 0x1AA JUMP JUMPDEST SWAP2 POP DUP3 DUP3 DIV DUP5 EQ DUP4 ISZERO OR PUSH2 0x2A1 JUMPI PUSH2 0x2A0 PUSH2 0x237 JUMP JUMPDEST JUMPDEST POP SWAP3 SWAP2 POP POP JUMP JUMPDEST PUSH32 0x4E487B7100000000000000000000000000000000000000000000000000000000 PUSH1 0x0 MSTORE PUSH1 0x12 PUSH1 0x4 MSTORE PUSH1 0x24 PUSH1 0x0 REVERT JUMPDEST PUSH1 0x0 PUSH2 0x2E2 DUP3 PUSH2 0x1AA JUMP JUMPDEST SWAP2 POP PUSH2 0x2ED DUP4 PUSH2 0x1AA JUMP JUMPDEST SWAP3 POP DUP3 PUSH2 0x2FD JUMPI PUSH2 0x2FC PUSH2 0x2A8 JUMP JUMPDEST JUMPDEST DUP3 DUP3 MOD SWAP1 POP SWAP3 SWAP2 POP POP JUMP JUMPDEST PUSH1 0x0 PUSH2 0x313 DUP3 PUSH2 0x1AA JUMP JUMPDEST SWAP2 POP PUSH32 0xFFFFFFFFFFFFFFFFFFFFFFFFFFFFFFFFFFFFFFFFFFFFFFFFFFFFFFFFFFFFFFFF DUP3 SUB PUSH2 0x345 JUMPI PUSH2 0x344 PUSH2 0x237 JUMP JUMPDEST JUMPDEST PUSH1 0x1 DUP3 ADD SWAP1 POP SWAP2 SWAP1 POP JUMP INVALID LOG2 PUSH5 0x6970667358 0x22 SLT KECCAK256 0xE7 0x4F DUP1 0xCA MSIZE 0xAD PUSH5 0x25BB9538D3 0x21 CODECOPY AND BALANCE 0x24 SWAP15 0xC9 0xB2 SWAP10 SWAP15 0xC0 LOG2 PUSH28 0x4E0F8DE543460564736F6C6343000811003300000000000000000000 "},"methodIdentifiers":{"balance()":"b69ef8a8","composite_cube(uint256)":"04ad2dcc","getBalance()":"12065fe0","prime_square(uint256)":"326b2746"}}}}}